:100000000C9463000C948B000C948B000C945104A2
:100010000C9451040C9451040C948B000C948B00A0
:100020000C948B000C948B000C948B000C948B0024
:100030000C948B000C948B000C948B000C948B0014
:100040000C94AF030C948B000C941F040C94F903D4
:100050000C948B000C948B000C948B000C948B00F4
:100060000C948B000C948B000000000024002700EF
:100070002A0000000008000201000003040700003D
:1000800000000000000000000000230026002900FE
:1000900000000000250028002B00040404040404D0
:1000A0000404020202020202030303030303010227
:1000B00004081020408001020408102001020408F6
:1000C0001020C904650711241FBECFEFD8E0DEBFA2
:1000D000CDBF11E0A0E0B1E0E8E7FFE002C005908D
:1000E0000D92A835B107D9F722E0A8E5B1E001C02B
:1000F0001D92AF36B207E1F710E0C2E6D0E004C0CF
:100100002197FE010E94A907C136D107C9F70E94B5
:1001100072050C94AF070C94000090E0FC01EE58BF
:10012000FF4F2491FC01E255FF4F3491FC01E6564C
:10013000FF4FE491EE23C9F0222339F0233001F17F
:10014000A8F4213019F1223029F1F0E0EE0FFF1F61
:10015000E057FF4FA591B4918FB7F894EC916111DE
:1001600026C030953E233C938FBF08952730A9F0D9
:100170002830C9F0243049F7809180008F7D03C07A
:10018000809180008F7780938000DFCF84B58F7758
:1001900084BDDBCF84B58F7DFBCF8091B0008F779E
:1001A0008093B000D2CF8091B0008F7DF9CF3E2BED
:1001B000DACFCF93DF9390E0FC01E255FF4F24911B
:1001C00086569F4FFC0184918823D1F090E0880FE0
:1001D000991FFC01E859FF4FA591B491FC01E0572C
:1001E000FF4FC591D49161110EC09FB7F8948C91C7
:1001F000E22FE0958E238C932881E223E8839FBF32
:10020000DF91CF9108958FB7F894EC91E22BEC93A6
:100210008FBFF6CFAF92BF92CF92DF92EF92FF9255
:100220000F931F93CF93DF936C017B018B01040F1E
:10023000151FEB015E01AE18BF08C017D10759F0BA
:100240006991D601ED91FC910190F081E02DC601FC
:100250000995892B79F7C501DF91CF911F910F91F6
:10026000FF90EF90DF90CF90BF90AF900895FC018A
:10027000538D448D252F30E0842F90E0821B930B0B
:10028000541710F0CF96089501970895FC01918DB1
:10029000828D981761F0A28DAE0FBF2FB11D5D96B4
:1002A0008C91928D9F5F9F73928F90E008958FEF56
:1002B0009FEF0895FC01918D828D981731F0828D0A
:1002C000E80FF11D858D90E008958FEF9FEF089561
:1002D000FC01918D228D892F90E0805C9F4F821BC5
:1002E00091098F739927089583EB91E00E9468012B
:1002F00021E0892B09F420E0822F089580E090E02E
:10030000892B29F00E94740181110C94000008953A
:10031000FC01A48DA80FB92FB11DA35ABF4F2C917A
:10032000848D90E001968F739927848FA689B78971
:100330002C93A089B1898C91837080648C93938D68
:10034000848D981306C00288F389E02D80818F7D0B
:1003500080830895EF92FF920F931F93CF93DF93C3
:10036000EC0181E0888F9B8D8C8D98131AC0E889F1
:10037000F989808185FF15C09FB7F894EE89FF89C0
:100380006083E889F98980818370806480839FBF5E
:1003900081E090E0DF91CF911F910F91FF90EF905E
:1003A0000895F62E0B8D10E00F5F1F4F0F7311276E
:1003B000E02E8C8D8E110CC00FB607FCFACFE889A9
:1003C000F989808185FFF5CFCE010E948801F1CFA8
:1003D000EB8DEC0FFD2FF11DE35AFF4FF0829FB71D
:1003E000F8940B8FEA89FB8980818062CFCFCF930D
:1003F000DF93EC01888D8823B9F0AA89BB89E8894D
:10040000F9898C9185FD03C0808186FD0DC00FB6F2
:1004100007FCF7CF8C9185FFF2CF808185FFEDCF70
:10042000CE010E948801E9CFDF91CF9108952091FC
:100430009A0130919B012817390771F49091980126
:1004400080919901981741F0E0919801F0E0E85A05
:10045000FE4F808190E008958FEF9FEF08950895FB
:10046000EF92FF920F931F93CF93DF93DC015C9683
:10047000ED90FC905D97E114F10479F481E090E057
:1004800013969C938E93129790E080E0DF91CF912A
:100490001F910F91FF90EF9008955196ED91FC916F
:1004A000529750968C915097982F90950FB75E96D3
:1004B0002C915E97122F127021FD6095F894208187
:1004C000112319F1282B2083E7012197F1F728E068
:1004D000462F50E0308160FF1AC0382B3083E7018F
:1004E0002197F1F7BA0175956795215089F7112386
:1004F00081F08081892380830FBF5C968D919C91D0
:100500000197F1F781E090E0C1CF2923DCCF3923B7
:10051000E5CF9081892BEFCF20919A0130919B01FB
:100520002817390761F4809199012091980190E092
:10053000805C9F4F821B91098F739927089590E0EB
:1005400080E0089520919A0130919B012817390786
:10055000B9F49091980180919901981789F0E091F0
:100560009801F0E0E85AFE4F80812091980130E038
:100570002F5F3F4F2F7333272093980190E008950A
:100580008FEF9FEF089590E080E008950F931F9301
:10059000CF93DF938C01C62F682F617089E00E9492
:1005A0008D00B8017595679561708AE00E948D0095
:1005B000B80175956795759567958BE00E948D00DC
:1005C000EC2FF0E0EB5FFE4FC0816C2F6095617007
:1005D00082E00E948D00D1E0C1FB662760F96D27A3
:1005E00083E00E948D00C2FB662760F96D2784E0DE
:1005F0000E948D00C3FB662760F96D2785E00E948D
:100600008D00C4FB662760F96D2786E00E948D008F
:10061000C5FB662760F96D2787E00E948D00C6FB49
:10062000662760F96D2788E0DF91CF911F910F91C8
:100630000C948D001F93CF93DF936091030190E0A2
:1006400080E00E94C60280919E0190919F01CAE0C5
:10065000D0E0BE010E948107182F81E090E00E9447
:10066000C602612F82E090E00E94C60280919C0148
:1006700090919D01BE010E948107182F83E090E0B8
:100680000E94C602612F84E090E00E94C602809121
:10069000000190910101BE010E948107C82F85E0F1
:1006A00090E00E94C6026C2F86E090E00E94C60295
:1006B00060E089E00E948D0060E08AE00E948D0089
:1006C00061E08BE00E948D00C091A401D091A50152
:1006D00061E01C161D060CF460E082E00E948D00B3
:1006E00061E0C230D1050CF060E083E00E948D0033
:1006F00061E023970CF060E084E00E948D00C091DF
:10070000A201D091A30161E01C161D060CF460E06B
:1007100085E00E948D0061E022970CF060E086E0A9
:100720000E948D00C091A001D091A10161E01C1632
:100730001D060CF460E087E00E948D0061E02297C6
:100740000CF060E088E00E948D006091020181E081
:1007500068278CE0DF91CF911F910C948D001F9240
:100760000F920FB60F9211242F933F938F939F9365
:10077000AF93BF938091AF019091B001A091B1016F
:10078000B091B2013091AE0123E0230F2D3758F51F
:100790000196A11DB11D2093AE018093AF019093EE
:1007A000B001A093B101B093B2018091AA019091E0
:1007B000AB01A091AC01B091AD010196A11DB11D9D
:1007C0008093AA019093AB01A093AC01B093AD01CB
:1007D000BF91AF919F918F913F912F910F900FBE3D
:1007E0000F901F90189526E8230F0296A11DB11DAA
:1007F000D2CF1F920F920FB60F9211242F933F93D7
:100800004F935F936F937F938F939F93AF93BF9318
:10081000EF93FF9383EB91E00E948801FF91EF91AA
:10082000BF91AF919F918F917F916F915F914F9108
:100830003F912F910F900FBE0F901F9018951F9210
:100840000F920FB60F9211242F938F939F93EF93D4
:10085000FF93E091C301F091C4018081E091C9014F
:10086000F091CA0182FD1BC090818091CC018F5F05
:100870008F732091CD01821741F0E091CC01F0E01F
:10088000ED54FE4F958F8093CC01FF91EF919F9196
:100890008F912F910F900FBE0F901F901895808110
:1008A000F4CF1F920F920FB60F9211242F933F9304
:1008B0004F935F936F937F938F939F93AF93BF9368
:1008C000EF93FF93E0919A01F0919B01309749F0EB
:1008D000A685B7858585968D91FF14C09C91892347
:1008E000A1F4FF91EF91BF91AF919F918F917F9173
:1008F0006F915F914F913F912F910F900FBE0F908D
:100900001F9018959C91892361F7A389B4899C91C4
:100910008589809589238C93868997890197F1F73A
:10092000608D718DA685B785558538E020E0CB01B7
:100930000197F1F7822F90E095958795282F4C919C
:10094000452309F02068315091F7868D81FD20956F
:100950008091990190E001968F73992730919801C9
:10096000381799F0A0919901B0E0A85ABE4F2C9386
:1009700080939901828D938D0197F1F7A389B489B2
:100980008C919589892B8C93ACCF868D8160868FD5
:10099000F1CF1092B6011092B50188EE93E0A0E07D
:1009A000B0E08093B7019093B801A093B901B093E0
:1009B000BA0123E131E03093B4012093B30125EC77
:1009C00030E03093C0012093BF0124EC30E030933D
:1009D000C2012093C10120EC30E03093C401209388
:1009E000C30121EC30E03093C6012093C50122EC15
:1009F00030E03093C8012093C70126EC30E03093FB
:100A0000CA012093C9011092CC011092CD0110921D
:100A1000CE011092CF011092530210925202809395
:100A2000540290935502A0935602B093570285E268
:100A300091E09093510280935002109267021092BD
:100A40006602109269021092680210926B02109274
:100A50006A0210926D0210926C0260916E026E7FBB
:100A60006D7F60936E026695617081E068270E94D9
:100A70008D0061E081E00E94D900EFEAF0E0E491AE
:100A8000E0936002EBE9F0E0E491F0E0EE0FFF1F8D
:100A9000E057FF4F85919491909362028093610299
:100AA00060E080E00E94D90080916E0281FD04C068
:100AB00061E080E00E948D0010925C02EEEAF0E0BE
:100AC000E491E0935D02EAE9F0E0E491F0E0EE0FFA
:100AD000FF1FEA57FF4F8591949190935F02809397
:100AE0005E020895789484B5826084BD84B5816087
:100AF00084BD85B5826085BD85B5816085BD8091E9
:100B00006E00816080936E00109281008091810060
:100B10008260809381008091810081608093810058
:100B2000809180008160809380008091B10084601A
:100B30008093B1008091B00081608093B00080917B
:100B40007A00846080937A0080917A00826080933A
:100B50007A0080917A00816080937A0080917A0097
:100B6000806880937A001092C100E091C301F091F7
:100B7000C40182E08083E091BF01F091C001108246
:100B8000E091C101F091C2018FEC80831092CB0102
:100B9000E091C701F091C80186E08083E091C50132
:100BA000F091C601808180618083E091C501F09160
:100BB000C601808188608083E091C501F091C60103
:100BC000808180688083E091C501F091C6018081B9
:100BD0008F7D808310926B0210926A0210926902DC
:100BE0001092680210926702109266028DE991E0FD
:100BF00090936D0280936C0290915C02963108F0A4
:100C000047C02DEB30E030936702209366022BE95A
:100C100031E030936902209368022CE231E0309396
:100C20006B0220936A022091680084E0983048F0BB
:100C300031E09E3008F430E081E001C0880F3A9541
:100C4000EAF7822B809368002DE630E0983050F070
:100C50002BE630E09E3030F02CE630E0963110F09C
:100C600030E020E03093640220936302292F30E0CB
:100C7000983008F01DC181E001C0880F9A95EAF70D
:100C80008093650280916C0290916D020197F1F75B
:100C900080916A0290916B02892B49F1E0919A014F
:100CA000F0919B0122E0E035F20709F1309739F02D
:100CB000A389B4899C918589809589238C9380919F
:100CC0006E028E7F80936E021092990110929801AD
:100CD00080E592E090939B0180939A01E0916302FA
:100CE000F0916402808190916502892B808341E2BA
:100CF00050E063E371E083EB91E00E940A0142E07F
:100D000050E065E571E083EB91E00E940A0161E04B
:100D100082E00E94D90061E083E00E94D90061E096
:100D200084E00E94D90061E085E00E94D90061E082
:100D300086E00E94D90061E087E00E94D90061E06E
:100D400088E00E94D90061E089E00E94D90061E05A
:100D50008AE00E94D90061E08BE00E94D90061E046
:100D60008CE00E94D9000E941A0384E0E82EF12C46
:100D7000C3E0D0E099E0C92ED12C7724739404E627
:100D800010E025E1A22EB12C30E0832E30E0932E2E
:100D90002FB7F8948091AF019091B001A091B1016B
:100DA000B091B2012FBF4091A6015091A70160916F
:100DB000A8017091A9011C012D01241A350A460AC7
:100DC000570AB201A101483E53406105710508F47C
:100DD00063C08093A6019093A701A093A801B0934C
:100DE000A9018091A4019091A5010196B7010E94EB
:100DF00081079093A5018093A4018091A201909115
:100E0000A3010196BE010E9481079093A3018093E4
:100E1000A2018091A0019091A1010196BE010E94C2
:100E200081079093A1018093A0018091030190918B
:100E30000401B6010E9481070196909304018093FA
:100E400003018091020187258093020180919E0118
:100E500090919F010196B8010E94810790939F0194
:100E600080939E0180919C0190919D010196B80113
:100E70000E94810790939D0180939C0180910001C5
:100E8000909101010196B5010E94810790930101A3
:100E9000809300010E941A038114910409F478CF11
:100EA0000E947401882309F473CF0E94000070CF60
:100EB0009E3040F42850310981E001C0880F2A9506
:100EC000EAF7DECE2E503109F7CF85E291E090931C
:100ED00051028093500280919A0190919B0180551C
:100EE000924071F4E0916302F091640290818091EC
:100EF000650280958923808310929B0110929A014C
:100F0000089597FB072E16F4009407D077FD09D0BB
:100F10000E94950707FC05D03EF4909581959F4F60
:100F20000895709561957F4F0895AA1BBB1B51E1F1
:100F300007C0AA1FBB1FA617B70710F0A61BB70B49
:100F4000881F991F5A95A9F780959095BC01CD01EE
:100F50000895EE0FFF1F0590F491E02D099410E025
:100F6000C2E6D0E004C0FE010E94A9072196C33664
:080F7000D107C9F7F894FFCF87
:100F780014000101003F065B4F666D7D077F6F001F
:100F8800000000AA010A013701F701680146015A69
:100F9800010000000030020A01C3022F028C02A2E5
:100FA800021702426C7565746F6F74682044657629
:100FB80069636520697320526561647920746F20C4
:080FC80050616972000D0A007E
:00000001FF
